:100000000C942A000C945A000C9448000C94340070
:100010000C9434000C9434000C9434000C94340090
:100020000C9434000C9434000C9434000C94340080
:100030000C9434000C9434000C9434000C94340070
:100040000C9434000C9434000C9436000C9434005E
:100050000C94340011241FBECFE5D4E0DEBFCDBF29
:100060000E946C000C947B000C9400001F920F9275
:100070000FB60F9211248F939F9388B398E089272E
:1000800088BB9F918F910F900FBE0F901F90189576
:100090001F920F920FB60F9211248F939F9388B3E4
:1000A00092E0892788BB9F918F910F900FBE0F9090
:1000B0001F9018951F920F920FB60F9211248F93D5
:1000C0009F9388B391E0892788BB9F918F910F9070
:1000D0000FBE0F901F90189587B38B6087BBBA989F
:1000E0008FEC81BBF89480EE8BBF80E88FBF8EE4ED
:0A00F00085BF7894FFCFF894FFCF8E
:00000001FF
