:100000000C942A000C9434000C9434000C943400AA
:100010000C9434000C9434000C9434000C94340090
:100020000C9434000C9434000C9434000C94340080
:100030000C9434000C9434000C9434000C94340070
:100040000C9434000C9434000C9434000C94340060
:100050000C94340011241FBECFE5D4E0DEBFCDBF29
:100060000E9436000C9461000C940000B89AB99874
:10007000BA9ABB9ABC9AC09AC298C39AC49A84EF9F
:1000800091E028EC30E0F9013197F1F70197D9F7C9
:1000900080E090E031E024E002C081E090E0B1999E
:1000A0000BC0C39AC498892BC1F788B3832788BB38
:1000B00088B3822788BBF1CFC49AC39880E090E0D0
:0600C000EECFF894FFCF23
:00000001FF
