:100000000C942A000C9434000C9434000C943400AA
:100010000C9434000C9434000C9434000C94340090
:100020000C9434000C9434000C9434000C94340080
:100030000C9434000C9434000C9434000C94340070
:100040000C9434000C9434000C9434000C94340060
:100050000C94340011241FBECFE5D4E0DEBFCDBF29
:100060000E9436000C9448000C94000081B3806319
:1000700081BB8EB58B608EBD88E09DE39BBD8ABD44
:1000800082E49FE099BD88BD8FB580658FBDFFCFAD
:04009000F894FFCF12
:00000001FF
