:100000000C942A000C9479010C9447000C9447003E
:100010000C9447000C9447000C9447000C94470044
:100020000C9447000C9447000C9447000C94470034
:100030000C9447000C9447000C9447000C94470024
:100040000C9447000C9447000C9447000C94470014
:100050000C94470011241FBECFE5D4E0DEBFCDBF16
:1000600010E0A0E6B0E0E4E0F7E002C005900D92F9
:10007000A436B107D9F710E0A4E6B0E001C01D92A4
:10008000A038B107E1F70E94D2010C9480030C94D0
:100090000000DF93CF9300D000D0CDB7DEB79B0137
:1000A000AC0119821A821B821C8219821A821B825D
:1000B0001C820CC0000089819A81AB81BC810196B1
:1000C000A11DB11D89839A83AB83BC8389819A81E9
:1000D000AB81BC8182179307A407B50758F30F9033
:1000E0000F900F900F90CF91DF9108952F923F9234
:1000F0004F925F926F927F928F929F92AF92BF9238
:10010000CF92DF92EF92FF920F931F93CF93DF93E3
:1001100018BA1BBA4090680050906900F201EE0FC7
:10012000FF1FE459FF4F8081918190989198109220
:10013000630010926200C0916000D091610021E0E4
:10014000222E312C3C01882477FC8094982C70C09E
:1001500080916A0090916B00019709F470C0C09182
:100160006200D091630080916200909163000797D4
:100170007CF0C0916200D09163002897C1010C2EE1
:1001800002C0880F991F0A94E2F78BBB18BA08C007
:10019000C1010C2E02C0880F991F0A94E2F788BB98
:1001A000C401B3010E9469025B016C0120E030E0F0
:1001B0004AE753E40E94F5027B018C0120E030E025
:1001C00040E85FE30E94370288231CF461E070E09E
:1001D00023C0C801B70120E03FEF4FE757E40E947A
:1001E000F1021816ACF4C601B50120E030E040E29F
:1001F00051E40E94F5020E943B0206C089E190E0B2
:100200000197F1F76150704061157105B9F707C0AA
:10021000C801B7010E943B02CB010197F1F7809121
:100220006200909163000196909363008093620056
:10023000809162009091630041970CF489CFD09334
:100240006100C093600080916200909163004097CC
:1002500011F418BA1BBA1092630010926200109247
:1002600061001092600010926B0010926A00109270
:10027000670010926600C201019690936900809316
:100280006800099724F01092690010926800DF91CD
:10029000CF911F910F91FF90EF90DF90CF90BF9083
:1002A000AF909F908F907F906F905F904F903F9016
:1002B0002F9008958091640090916500019690932D
:1002C0006500809364008536910594F08091660006
:1002D00090916700892B61F481E090E09093670032
:1002E0008093660010926500109264000E94760070
:1002F00008951F920F920FB60F9211242F933F93E0
:100300004F935F936F937F938F939F93AF93BF931D
:10031000EF93FF9381E090E090936B0080936A00ED
:1003200080916200909163000F9711F4909A24C01D
:100330008091620090916300409719F4909A919A8D
:100340001CC082B3836082BB68EC70E080E090E008
:100350000E9449009098919868EC70E080E090E0ED
:100360000E94490082B3836082BB68EC70E080E049
:1003700090E00E9449009098919810926B00109222
:100380006A00FF91EF91BF91AF919F918F917F9103
:100390006F915F914F913F912F910F900FBE0F90F2
:1003A0001F9018958FEF8ABB87BB83EC81BBF894B5
:1003B00080E48BBF80E88FBF83E085BF78948FEFA8
:1003C00088BB8BBB82B3836082BB88E893E129E161
:1003D00030E0F9013197F1F70197D9F718BA1BBA54
:1003E00090989198109267001092660084E690E0D1
:1003F00090936D0080936C0082E390E090936F0087
:1004000080936E008BE490E0909371008093700075
:1004100085E590E0909373008093720088E290E00D
:1004200090937500809374008DE790E0909377002F
:10043000809376008CE390E090937900809378002D
:1004400080E590E090937B0080937A008AE590E0CD
:1004500090937D0080937C008EE690E090937F00E7
:1004600080937E00869BFECF0E945A01FBCF6CD00A
:1004700008F481E0089594D088F09F5790F0B92F48
:100480009927B751A0F0D1F0660F771F881F991FE9
:100490001AF0BA95C9F712C0B13081F09BD0B1E023
:1004A000089598C0672F782F8827B85F39F0B93F33
:1004B000CCF3869577956795B395D9F73EF49095EB
:1004C0008095709561957F4F8F4F9F4F0895E89469
:1004D00009C097FB3EF490958095709561957F4F8C
:1004E0008F4F9F4F9923A9F0F92F96E9BB2793953A
:1004F000F695879577956795B795F111F8CFFAF44A
:10050000BB0F11F460FF1BC06F5F7F4F8F4F9F4F7A
:1005100016C0882311F096E911C0772321F09EE8D8
:10052000872F762F05C0662371F096E8862F70E03E
:1005300060E02AF09A95660F771F881FDAF7880F18
:100540009695879597F90895990F0008550FAA0B6E
:10055000E0E8FEEF16161706E807F907C0F01216D6
:100560001306E407F50798F0621B730B840B950BD9
:1005700039F40A2661F0232B242B252B21F408952E
:100580000A2609F4A140A6958FEF811D811D0895CB
:1005900057FD9058440F551F59F05F3F71F0479534
:1005A000880F97FB991F61F09F3F79F08795089519
:1005B000121613061406551FF2CF4695F1DF08C038
:1005C000161617061806991FF1CF86957105610555
:1005D00008940895E894BB2766277727CB0197F9FD
:1005E0000895B2DF08F48FEF08950BD078C069D07A
:1005F00028F06ED018F0952309F05AC05FC011247E
:10060000EACFC6DFA0F3959FD1F3950F50E0551FB9
:10061000629FF001729FBB27F00DB11D639FAA2757
:10062000F00DB11DAA1F649F6627B00DA11D661FA6
:10063000829F2227B00DA11D621F739FB00DA11DC7
:10064000621F839FA00D611D221F749F3327A00D81
:10065000611D231F849F600D211D822F762F6A2F1D
:1006600011249F5750408AF0E1F088234AF0EE0FA2
:10067000FF1FBB1F661F771F881F91505040A9F7AF
:100680009E3F510570F014C0A6CF5F3FECF3983E3B
:10069000DCF3869577956795B795F795E7959F5F16
:1006A000C1F7FE2B880F911D9695879597F90895B0
:1006B00097F99F6780E870E060E008959FEF80EC15
:1006C000089500240A9416161706180609060895B8
:1006D00000240A9412161306140605060895092E1E
:1006E0000394000C11F4882352F0BB0F40F4BF2B8D
:1006F00011F460FF04C06F5F7F4F8F4F9F4F0895CD
:04070000F894FFCF9B
:0407040001000100EF
:00000001FF
