:100000000C942A000C9434000C9434000C943400AA
:100010000C9434000C9434000C9434000C94340090
:100020000C9434000C9434000C9434000C94340080
:100030000C9434000C9434000C9434000C94340070
:100040000C9434000C9434000C9434000C94340060
:100050000C94340011241FBECFE5D4E0DEBFCDBF29
:100060000E9436000C9444000C94000087B3856015
:1000700087BBB998C09AC29A91E084E0B19B02C054
:0C00800098BBFCCF88BBFACFF894FFCFF0
:00000001FF
