:100000000C942A000C943E000C943C000C943C0090
:100010000C943C000C943C000C943C000C943C0070
:100020000C943C000C943C000C943C000C943C0060
:100030000C943C000C943C000C943C000C943C0050
:100040000C943C000C943C000C943C000C943C0040
:100050000C943C0011241FBECFE5D4E0DEBFCDBF21
:1000600010E0A0E6B0E001C01D92A236B107E1F7B2
:100070000E9450000C945D000C9400001F920F929F
:100080000FB60F9211248F939F9388B391E0892725
:1000900088BB9F918F910F900FBE0F901F90189566
:1000A000B89AC09A87EE81BBF89480E48BBF80E851
:0E00B0008FBF82E085BF7894FFCFF894FFCF1A
:00000001FF
