:100000000C942A000C9436000C9434000C943400A8
:100010000C9434000C9434000C9434000C94340090
:100020000C9434000C9434000C9434000C94340080
:100030000C9434000C9434000C9434000C94340070
:100040000C9434000C9434000C9434000C94340060
:100050000C94340011241FBECFE5D4E0DEBFCDBF29
:100060000E9459000C9469000C9400001F920F929A
:100070000FB60F9211242F933F938F939F93EF937B
:10008000FF9388B391E0892788BB84EF91E028EC47
:1000900030E0F9013197F1F70197D9F7FF91EF912E
:1000A0009F918F913F912F910F900FBE0F901F90B6
:1000B0001895B89AC09A87EE81BBF89480E48BBFFC
:1000C00080E88FBF83E085BF78948FB7F8948FBFA7
:0600D000FCCFF894FFCF05
:00000001FF
