:100000000C942A000C943C000C943C000C943C0092
:100010000C943C000C943C000C943C000C943C0070
:100020000C943C000C943C000C943C000C943C0060
:100030000C943C000C943C000C943C000C943C0050
:100040000C943C000C943C000C943C000C943C0040
:100050000C943C0011241FBECFE5D4E0DEBFCDBF21
:1000600010E0A0E6B0E001C01D92A037B107E1F7B3
:100070000E9426010C9449010C940000892B21F563
:1000800018BA88E893E1FC013197F1F72FEF28BB0C
:10009000FC013197F1F718BAFC013197F1F728BB51
:1000A000FC013197F1F718BAFC013197F1F728BB41
:1000B000FC013197F1F718BAFC013197F1F728BB31
:1000C0000197F1F718BA08951BBA88E893E1FC018B
:1000D0003197F1F72FEF2BBBFC013197F1F71BBAEA
:1000E000FC013197F1F72BBBFC013197F1F71BBAFB
:1000F000FC013197F1F72BBBFC013197F1F71BBAEB
:10010000FC013197F1F72BBB0197F1F71BBA08956A
:10011000CF93DF93EC019C01220F331FF901E859C3
:10012000FF4F4081518141305105F1F5F901EC5902
:10013000FF4F80819181019691838083893C910555
:100140009CF1F901E459FF4F80819181883091053C
:1001500034F051834083CE010E943E0019C09A01C1
:10016000082E02C0220F331F0A94E2F7AC014F5F42
:100170005F4F209741F488B3822B88BB50936D006A
:1001800040936C0005C08BB3822B8BBB51834083A3
:10019000FE01EE0FFF1FDF01AC59BF4F1D921C92F5
:1001A000E859FF4F11821082DF91CF910895CF93CC
:1001B000DF93EC01CC0FDD1FDE01A05ABF4F8D9104
:1001C0009C911197019611969C938E93893C910571
:1001D0006CF0FE01EC59FF4F118210821D921C92AF
:1001E000C859DF4F81E090E099838883DF91CF91F8
:1001F000089518BA1BBA81E090E090936D00809347
:100200006C0090936F0080936E00109265001092C6
:1002100064001092670010926600109261001092C4
:1002200060001092630010926200909369008093C6
:10023000680090936B0080936A0080E090E00E94D9
:100240003E0081E090E00E943E0008958EEF87BB63
:100250008ABB889818BA1BBA0E94F900809B02C01A
:100260000E94F900B09B05C080E090E00E948800E9
:1002700004C080E090E00E94D700C89B05C081E0E8
:1002800090E00E948800EACF81E090E00E94D700D1
:06029000E5CFF894FFCF5A
:00000001FF
